{
    "contractName": "FundMe",
    "abi": [
        {
            "inputs": [
                {
                    "internalType": "address",
                    "name": "priceFeedAddress",
                    "type": "address"
                }
            ],
            "stateMutability": "nonpayable",
            "type": "constructor"
        },
        {
            "inputs": [],
            "name": "FundMe__NotOwner",
            "type": "error"
        },
        {
            "stateMutability": "payable",
            "type": "fallback"
        },
        {
            "inputs": [
                {
                    "internalType": "address",
                    "name": "",
                    "type": "address"
                }
            ],
            "name": "addressToAmountFunded",
            "outputs": [
                {
                    "internalType": "uint256",
                    "name": "",
                    "type": "uint256"
                }
            ],
            "stateMutability": "view",
            "type": "function"
        },
        {
            "inputs": [],
            "name": "fund",
            "outputs": [],
            "stateMutability": "payable",
            "type": "function"
        },
        {
            "inputs": [
                {
                    "internalType": "uint256",
                    "name": "",
                    "type": "uint256"
                }
            ],
            "name": "funders",
            "outputs": [
                {
                    "internalType": "address",
                    "name": "",
                    "type": "address"
                }
            ],
            "stateMutability": "view",
            "type": "function"
        },
        {
            "inputs": [],
            "name": "i_owner",
            "outputs": [
                {
                    "internalType": "address",
                    "name": "",
                    "type": "address"
                }
            ],
            "stateMutability": "view",
            "type": "function"
        },
        {
            "inputs": [],
            "name": "minimumUsd",
            "outputs": [
                {
                    "internalType": "uint256",
                    "name": "",
                    "type": "uint256"
                }
            ],
            "stateMutability": "view",
            "type": "function"
        },
        {
            "inputs": [],
            "name": "priceFeed",
            "outputs": [
                {
                    "internalType": "contract AggregatorV3Interface",
                    "name": "",
                    "type": "address"
                }
            ],
            "stateMutability": "view",
            "type": "function"
        },
        {
            "inputs": [],
            "name": "withdraw",
            "outputs": [],
            "stateMutability": "nonpayable",
            "type": "function"
        },
        {
            "stateMutability": "payable",
            "type": "receive"
        }
    ],
    "bytecode": "60a060405234801561001057600080fd5b506040516107d23803806107d283398101604081905261002f9161005b565b3360601b608052600280546001600160a01b0319166001600160a01b039290921691909117905561008b565b60006020828403121561006d57600080fd5b81516001600160a01b038116811461008457600080fd5b9392505050565b60805160601c6107226100b060003960008181610147015261026e01526107226000f3fe6080604052600436106100745760003560e01c8063741bef1a1161004e578063741bef1a146100fd578063b60d428814610083578063dba6335f14610135578063dc0d3dff1461016957610083565b8063098de8201461008b5780633ccfd60b146100bb5780633e47d6f3146100d057610083565b3661008357610081610189565b005b610081610189565b34801561009757600080fd5b506100a86802b5e3af16b188000081565b6040519081526020015b60405180910390f35b3480156100c757600080fd5b50610081610263565b3480156100dc57600080fd5b506100a86100eb366004610535565b60016020526000908152604090205481565b34801561010957600080fd5b5060025461011d906001600160a01b031681565b6040516001600160a01b0390911681526020016100b2565b34801561014157600080fd5b5061011d7f000000000000000000000000000000000000000000000000000000000000000081565b34801561017557600080fd5b5061011d61018436600461055e565b6103aa565b6002546802b5e3af16b1880000906101ab9034906001600160a01b03166103d4565b10156101fe5760405162461bcd60e51b815260206004820152601b60248201527f596f75206e65656420746f207370656e64206d6f72652045544821000000000060448201526064015b60405180910390fd5b336000908152600160205260408120805434929061021d9084906105c7565b9091555050600080546001810182559080527f290decd9548b62a8d60345a988386fc84ba6bc95484008f6362f93160ef3e5630180546001600160a01b03191633179055565b336001600160a01b037f000000000000000000000000000000000000000000000000000000000000000016146102ac5760405163579610db60e01b815260040160405180910390fd5b60005b6000548110156103025760008082815481106102cd576102cd6106d6565b60009182526020808320909101546001600160a01b0316825260019052604081205550806102fa816106a5565b9150506102af565b5060408051600080825260208201928390529051610320929061049c565b50604051600090339047908381818185875af1925050503d8060008114610363576040519150601f19603f3d011682016040523d82523d6000602084013e610368565b606091505b50509050806103a75760405162461bcd60e51b815260206004820152600b60248201526a10d85b1b0811985a5b195960aa1b60448201526064016101f5565b50565b600081815481106103ba57600080fd5b6000918252602090912001546001600160a01b0316905081565b6000806103e08361040a565b90506000670de0b6b3a76400006103f78684610686565b61040191906105df565b95945050505050565b600080826001600160a01b031663feaf968c6040518163ffffffff1660e01b815260040160a06040518083038186803b15801561044657600080fd5b505afa15801561045a573d6000803e3d6000fd5b505050506040513d601f19601f8201168201806040525081019061047e9190610577565b505050915050806402540be4006104959190610601565b9392505050565b8280548282559060005260206000209081019282156104f1579160200282015b828111156104f157825182546001600160a01b0319166001600160a01b039091161782556020909201916001909101906104bc565b506104fd929150610501565b5090565b5b808211156104fd5760008155600101610502565b805169ffffffffffffffffffff8116811461053057600080fd5b919050565b60006020828403121561054757600080fd5b81356001600160a01b038116811461049557600080fd5b60006020828403121561057057600080fd5b5035919050565b600080600080600060a0868803121561058f57600080fd5b61059886610516565b94506020860151935060408601519250606086015191506105bb60808701610516565b90509295509295909350565b600082198211156105da576105da6106c0565b500190565b6000826105fc57634e487b7160e01b600052601260045260246000fd5b500490565b60006001600160ff1b0381841382841380821686840486111615610627576106276106c0565b600160ff1b6000871282811687830589121615610646576106466106c0565b60008712925087820587128484161615610662576106626106c0565b87850587128184161615610678576106786106c0565b505050929093029392505050565b60008160001904831182151516156106a0576106a06106c0565b500290565b60006000198214156106b9576106b96106c0565b5060010190565b634e487b7160e01b600052601160045260246000fd5b634e487b7160e01b600052603260045260246000fdfea2646970667358221220d389f1100158032f2a13d7a5e86516a7e171fafcf28077d33c4fa1cb78ca3f6b64736f6c63430008070033",
    "sourcePath": "/Users/tamwinghei/Documents/Projects/web3js/hardhat-fund-me-fcc/contracts/FundMe.sol",
    "compiler": {
        "name": "solc",
        "version": "0.8.7+commit.e28d00a7"
    },
    "functionHashes": {
        "addressToAmountFunded(address)": "3e47d6f3",
        "fund()": "b60d4288",
        "funders(uint256)": "dc0d3dff",
        "i_owner()": "dba6335f",
        "minimumUsd()": "098de820",
        "priceFeed()": "741bef1a",
        "withdraw()": "3ccfd60b"
    },
    "gasEstimates": {
        "creation": {
            "codeDepositCost": "365200",
            "executionCost": "infinite",
            "totalCost": "infinite"
        },
        "external": {
            "": "infinite",
            "addressToAmountFunded(address)": "2518",
            "fund()": "infinite",
            "funders(uint256)": "4680",
            "i_owner()": "infinite",
            "minimumUsd()": "185",
            "priceFeed()": "2337",
            "withdraw()": "infinite"
        }
    }
}